{
  "contractName": "MillionairesProblem",
  "abi": [
    {
      "constant": true,
      "inputs": [],
      "name": "numMillionaires",
      "outputs": [
        {
          "name": "",
          "type": "uint256"
        }
      ],
      "payable": false,
      "stateMutability": "view",
      "type": "function"
    },
    {
      "constant": true,
      "inputs": [],
      "name": "value",
      "outputs": [
        {
          "name": "",
          "type": "uint256"
        }
      ],
      "payable": false,
      "stateMutability": "view",
      "type": "function"
    },
    {
      "constant": true,
      "inputs": [],
      "name": "owner",
      "outputs": [
        {
          "name": "",
          "type": "address"
        }
      ],
      "payable": false,
      "stateMutability": "view",
      "type": "function"
    },
    {
      "constant": true,
      "inputs": [],
      "name": "enigma",
      "outputs": [
        {
          "name": "",
          "type": "address"
        }
      ],
      "payable": false,
      "stateMutability": "view",
      "type": "function"
    },
    {
      "inputs": [
        {
          "name": "_enigmaAddress",
          "type": "address"
        },
        {
          "name": "_owner",
          "type": "address"
        }
      ],
      "payable": false,
      "stateMutability": "nonpayable",
      "type": "constructor"
    },
    {
      "anonymous": false,
      "inputs": [
        {
          "indexed": false,
          "name": "callbackValue",
          "type": "uint256"
        }
      ],
      "name": "CallbackFinished",
      "type": "event"
    },
    {
      "constant": false,
      "inputs": [
        {
          "name": "_encryptedAddress",
          "type": "bytes"
        },
        {
          "name": "_encryptedNetWorth",
          "type": "bytes"
        }
      ],
      "name": "addMillionaire",
      "outputs": [],
      "payable": false,
      "stateMutability": "nonpayable",
      "type": "function"
    },
    {
      "constant": true,
      "inputs": [
        {
          "name": "index",
          "type": "uint256"
        }
      ],
      "name": "getInfoForMillionaire",
      "outputs": [
        {
          "name": "",
          "type": "bytes"
        },
        {
          "name": "",
          "type": "bytes"
        }
      ],
      "payable": false,
      "stateMutability": "view",
      "type": "function"
    },
    {
      "constant": true,
      "inputs": [
        {
          "name": "_val",
          "type": "uint256"
        }
      ],
      "name": "saveValue",
      "outputs": [
        {
          "name": "",
          "type": "uint256"
        }
      ],
      "payable": false,
      "stateMutability": "pure",
      "type": "function"
    },
    {
      "constant": false,
      "inputs": [
        {
          "name": "_val",
          "type": "uint256"
        }
      ],
      "name": "setValue",
      "outputs": [],
      "payable": false,
      "stateMutability": "nonpayable",
      "type": "function"
    }
  ],
  "bytecode": "0x608060405234801561001057600080fd5b506040516040806106d783398101604052805160209091015160038054600160a060020a03928316600160a060020a03199182161790915560048054929093169116179055610673806100646000396000f30060806040526004361061008d5763ffffffff7c0100000000000000000000000000000000000000000000000000000000600035041663191a09c681146100925780633fa4f245146100b957806347ce9402146100ce57806355241077146101c45780636c2506b7146101de5780638da5cb5b14610275578063b24fd5c5146102b3578063c14731ca146102c8575b600080fd5b34801561009e57600080fd5b506100a76102e0565b60408051918252519081900360200190f35b3480156100c557600080fd5b506100a76102e6565b3480156100da57600080fd5b506100e66004356102ec565b604051808060200180602001838103835285818151815260200191508051906020019080838360005b8381101561012757818101518382015260200161010f565b50505050905090810190601f1680156101545780820380516001836020036101000a031916815260200191505b50838103825284518152845160209182019186019080838360005b8381101561018757818101518382015260200161016f565b50505050905090810190601f1680156101b45780820380516001836020036101000a031916815260200191505b5094505050505060405180910390f35b3480156101d057600080fd5b506101dc600435610468565b005b3480156101ea57600080fd5b506040805160206004803580820135601f81018490048402850184019095528484526101dc94369492936024939284019190819084018382808284375050604080516020601f89358b018035918201839004830284018301909452808352979a9998810197919650918201945092508291508401838280828437509497506104c79650505050505050565b34801561028157600080fd5b5061028a61055d565b6040805173ffffffffffffffffffffffffffffffffffffffff9092168252519081900360200190f35b3480156102bf57600080fd5b5061028a610579565b3480156102d457600080fd5b506100a7600435610595565b60005481565b60025481565b6060806102f7610598565b60608060018681548110151561030957fe5b60009182526020918290206040805160029384029092018054600181161561010002600019011693909304601f810185900490940282016060908101825290820184815291938492918491908401828280156103a65780601f1061037b576101008083540402835291602001916103a6565b820191906000526020600020905b81548152906001019060200180831161038957829003601f168201915b50505050508152602001600182018054600181600116156101000203166002900480601f0160208091040260200160405190810160405280929190818152602001828054600181600116156101000203166002900480156104485780601f1061041d57610100808354040283529160200191610448565b820191906000526020600020905b81548152906001019060200180831161042b57829003601f168201915b505050919092525050815160209092015191989197509095505050505050565b60045473ffffffffffffffffffffffffffffffffffffffff16331461048c57600080fd5b60028190556040805182815290517fa28947740fe821f2dbccc08dfb9d11b738a9d46d3792458f90c5f0d83dffbe519181900360200190a150565b6104cf610598565b5060408051808201909152828152602080820183905260018054808201808355600092909252835180519293859360029093027fb10e2d527612073b26eecdfd717e6a320cf44b4afac2b0732d9fcbe2b7fa0cf6019261053292849201906105af565b50602082810151805161054b92600185019201906105af565b50506000805460010190555050505050565b60035473ffffffffffffffffffffffffffffffffffffffff1681565b60045473ffffffffffffffffffffffffffffffffffffffff1681565b90565b604080518082019091526060808252602082015290565b828054600181600116156101000203166002900490600052602060002090601f016020900481019282601f106105f057805160ff191683800117855561061d565b8280016001018555821561061d579182015b8281111561061d578251825591602001919060010190610602565b5061062992915061062d565b5090565b61059591905b8082111561062957600081556001016106335600a165627a7a7230582003a20c09e39c3d66407a553d6ffa73a3a730fe80574ab8922bbe555aa86ec47f0029",
  "source": "pragma solidity ^0.4.17; \n\n\ncontract MillionairesProblem {\n\t// Stores # of millionaires that have joined and stated their net worths\n\tuint public numMillionaires; \n\t// Stores Millionaire structs (defined below)\n\tMillionaire[] millionaires; \n\t// Stores address of richest millionaire; set in callback function below\n\tuint public value; \n\taddress public owner;\n\taddress public enigma;\n\n\t// Millionaire struct which holds encrypted address and net worth\n\tstruct Millionaire {\n\t\tbytes myAddress; \n\t\tbytes myNetWorth; \n\t}\n\n\t// Event emitted upon callback completion; watched from front end\n\tevent CallbackFinished(uint callbackValue); \n\n\t// Modifier to ensure only enigma contract can call function\n\tmodifier onlyEnigma() {\n\t\trequire(msg.sender == enigma);\n\t\t_;\n\t}\n\n\t// Constructor called when new contract is deployed\n\tconstructor(address _enigmaAddress, address _owner) public {\n\t\towner = _owner; \n\t\tenigma = _enigmaAddress;\n\t}\n\n\t// Add a new millionaire with encrypted address and net worth arguments\n\tfunction addMillionaire(bytes _encryptedAddress, bytes _encryptedNetWorth) \n\t\tpublic \n\t{\n\t\tMillionaire memory millionaire = Millionaire({\n\t\t\tmyAddress: _encryptedAddress, \n\t\t\tmyNetWorth: _encryptedNetWorth\n\t\t}); \n\t\tmillionaires.push(millionaire); \n\t\tnumMillionaires++; \n\t}\n\n\t// Return encrypted address and net worth for a particular millionaire\n\tfunction getInfoForMillionaire(uint index) \n\t\tpublic \n\t\tview \n\t\treturns (bytes, bytes) \n\t{\n\t\tMillionaire memory millionaire = millionaires[index]; \n\t\tbytes memory encryptedAddress = millionaire.myAddress; \n\t\tbytes memory encryptedNetWorth = millionaire.myNetWorth; \n\t\treturn (encryptedAddress, encryptedNetWorth); \n\t}\n\t\n\t/*\n\tCALLABLE FUNCTION run in SGX to decipher encrypted net worths to \n\tdetermine richest millionaire\n\t*/\n\tfunction saveValue(uint _val) \n\t\tpublic \n\t\tpure \n\t\treturns (uint) \n\t{\n\t\t// return _val;\n\t\treturn _val; \n\t}\n\n\t/*\n\tCALLBACK FUNCTION to change contract state tracking richest \n\tmillionaire's name\n\t*/\n\tfunction setValue(uint _val) public onlyEnigma() {\n\t\tvalue = _val; \n\t\temit CallbackFinished(_val); \n\t}\n}",
  "sourcePath": "/Users/adityapalepu/Startups/enigma/enigma-template-dapp/contracts/MillionairesProblem.sol",
  "compiler": {
    "name": "solc",
    "version": "0.4.24+commit.e67f0147.Emscripten.clang"
  },
  "schemaVersion": "2.0.0",
  "updatedAt": "2018-09-25T19:59:37.110Z"
}