{
  "contractName": "MillionairesProblemFactory",
  "abi": [
    {
      "constant": true,
      "inputs": [],
      "name": "enigmaAddress",
      "outputs": [
        {
          "name": "",
          "type": "address"
        }
      ],
      "payable": false,
      "stateMutability": "view",
      "type": "function",
      "signature": "0x44f97995"
    },
    {
      "constant": true,
      "inputs": [
        {
          "name": "",
          "type": "uint256"
        }
      ],
      "name": "millionairesProblems",
      "outputs": [
        {
          "name": "",
          "type": "address"
        }
      ],
      "payable": false,
      "stateMutability": "view",
      "type": "function",
      "signature": "0xb825519a"
    },
    {
      "inputs": [
        {
          "name": "_enigmaAddress",
          "type": "address"
        }
      ],
      "payable": false,
      "stateMutability": "nonpayable",
      "type": "constructor",
      "signature": "constructor"
    },
    {
      "constant": false,
      "inputs": [],
      "name": "createNewMillionairesProblem",
      "outputs": [],
      "payable": false,
      "stateMutability": "nonpayable",
      "type": "function",
      "signature": "0x7da8a0e7"
    },
    {
      "constant": true,
      "inputs": [],
      "name": "getMillionairesProblems",
      "outputs": [
        {
          "name": "",
          "type": "address[]"
        }
      ],
      "payable": false,
      "stateMutability": "view",
      "type": "function",
      "signature": "0x37d7f938"
    }
  ],
  "bytecode": "0x608060405234801561001057600080fd5b506040516020806109c8833981016040525160008054600160a060020a03909216600160a060020a0319909216919091179055610976806100526000396000f3006080604052600436106100615763ffffffff7c010000000000000000000000000000000000000000000000000000000060003504166337d7f938811461006657806344f97995146100cb5780637da8a0e7146100fc578063b825519a14610113575b600080fd5b34801561007257600080fd5b5061007b61012b565b60408051602080825283518183015283519192839290830191858101910280838360005b838110156100b757818101518382015260200161009f565b505050509050019250505060405180910390f35b3480156100d757600080fd5b506100e061018d565b60408051600160a060020a039092168252519081900360200190f35b34801561010857600080fd5b5061011161019c565b005b34801561011f57600080fd5b506100e0600435610245565b6060600180548060200260200160405190810160405280929190818152602001828054801561018357602002820191906000526020600020905b8154600160a060020a03168152600190910190602001808311610165575b5050505050905090565b600054600160a060020a031681565b60008054600160a060020a0316336101b261026d565b600160a060020a03928316815291166020820152604080519182900301906000f0801580156101e5573d6000803e3d6000fd5b506001805480820182556000919091527fb10e2d527612073b26eecdfd717e6a320cf44b4afac2b0732d9fcbe2b7fa0cf601805473ffffffffffffffffffffffffffffffffffffffff1916600160a060020a039290921691909117905550565b600180548290811061025357fe5b600091825260209091200154600160a060020a0316905081565b6040516106cd8061027e833901905600608060405234801561001057600080fd5b506040516040806106cd83398101604052805160209091015160038054600160a060020a03928316600160a060020a03199182161790915560048054929093169116179055610669806100646000396000f30060806040526004361061008d5763ffffffff7c0100000000000000000000000000000000000000000000000000000000600035041663191a09c681146100925780633fa4f245146100b957806347ce9402146100ce57806355241077146101c45780636c2506b7146101de5780638da5cb5b14610275578063b24fd5c5146102b3578063c14731ca146102c8575b600080fd5b34801561009e57600080fd5b506100a76102e0565b60408051918252519081900360200190f35b3480156100c557600080fd5b506100a76102e6565b3480156100da57600080fd5b506100e66004356102ec565b604051808060200180602001838103835285818151815260200191508051906020019080838360005b8381101561012757818101518382015260200161010f565b50505050905090810190601f1680156101545780820380516001836020036101000a031916815260200191505b50838103825284518152845160209182019186019080838360005b8381101561018757818101518382015260200161016f565b50505050905090810190601f1680156101b45780820380516001836020036101000a031916815260200191505b5094505050505060405180910390f35b3480156101d057600080fd5b506101dc600435610468565b005b3480156101ea57600080fd5b506040805160206004803580820135601f81018490048402850184019095528484526101dc94369492936024939284019190819084018382808284375050604080516020601f89358b018035918201839004830284018301909452808352979a9998810197919650918201945092508291508401838280828437509497506104bd9650505050505050565b34801561028157600080fd5b5061028a610553565b6040805173ffffffffffffffffffffffffffffffffffffffff9092168252519081900360200190f35b3480156102bf57600080fd5b5061028a61056f565b3480156102d457600080fd5b506100a760043561058b565b60005481565b60025481565b6060806102f761058e565b60608060018681548110151561030957fe5b60009182526020918290206040805160029384029092018054600181161561010002600019011693909304601f810185900490940282016060908101825290820184815291938492918491908401828280156103a65780601f1061037b576101008083540402835291602001916103a6565b820191906000526020600020905b81548152906001019060200180831161038957829003601f168201915b50505050508152602001600182018054600181600116156101000203166002900480601f0160208091040260200160405190810160405280929190818152602001828054600181600116156101000203166002900480156104485780601f1061041d57610100808354040283529160200191610448565b820191906000526020600020905b81548152906001019060200180831161042b57829003601f168201915b505050919092525050815160209092015191989197509095505050505050565b60045473ffffffffffffffffffffffffffffffffffffffff16331461048c57600080fd5b60028190556040517ffa6b2fa56bfe305041a2170756c9ee87984e5078d2533f89642c6ded5ff6a90290600090a150565b6104c561058e565b5060408051808201909152828152602080820183905260018054808201808355600092909252835180519293859360029093027fb10e2d527612073b26eecdfd717e6a320cf44b4afac2b0732d9fcbe2b7fa0cf6019261052892849201906105a5565b50602082810151805161054192600185019201906105a5565b50506000805460010190555050505050565b60035473ffffffffffffffffffffffffffffffffffffffff1681565b60045473ffffffffffffffffffffffffffffffffffffffff1681565b90565b604080518082019091526060808252602082015290565b828054600181600116156101000203166002900490600052602060002090601f016020900481019282601f106105e657805160ff1916838001178555610613565b82800160010185558215610613579182015b828111156106135782518255916020019190600101906105f8565b5061061f929150610623565b5090565b61058b91905b8082111561061f57600081556001016106295600a165627a7a723058208533afeea11c653bd742f84be644db9e43515433657ac3c33e677e701381d23b0029a165627a7a7230582065012b152971f9021ee0d27468e747c67b4a78ab914f7e5a1c365d858f1c45830029",
  "source": "pragma solidity ^0.4.17; \nimport \"./MillionairesProblem.sol\";\n\n\ncontract MillionairesProblemFactory {\n\taddress public enigmaAddress; \n\t// List of addresses for deployed MillionaireProblem instances\n\taddress[] public millionairesProblems; \n\n\tconstructor(address _enigmaAddress) public {\n\t\tenigmaAddress = _enigmaAddress; \n\t}\n\n\t// Create a new MillionaireProblem and store address to array\n\tfunction createNewMillionairesProblem() public {\n\t\taddress newMillionairesProblem = new MillionairesProblem(\n\t\t\tenigmaAddress, \n\t\t\tmsg.sender\n\t\t);\n\t\tmillionairesProblems.push(newMillionairesProblem); \n\t}\n\n\t// Obtain list of all deployed MillionaireProblem instances\n\tfunction getMillionairesProblems() public view returns (address[]) {\n\t\treturn millionairesProblems; \n\t}\t \n}",
  "sourcePath": "/Users/adityapalepu/Startups/enigma/enigma-template-dapp/contracts/MillionairesProblemFactory.sol",
  "compiler": {
    "name": "solc",
    "version": "0.4.24+commit.e67f0147.Emscripten.clang"
  },
  "schemaVersion": "2.0.0",
  "updatedAt": "2018-09-20T20:25:20.084Z"
}